{
  "contractName": "nonProfit",
  "abi": [
    {
      "constant": false,
      "inputs": [
        {
          "name": "detail",
          "type": "uint256"
        },
        {
          "name": "creator",
          "type": "address"
        },
        {
          "name": "bids",
          "type": "uint256"
        }
      ],
      "name": "createRequirement",
      "outputs": [],
      "payable": false,
      "stateMutability": "nonpayable",
      "type": "function"
    }
  ],
  "bytecode": "0x608060405234801561001057600080fd5b50610187806100206000396000f300608060405260043610610041576000357c0100000000000000000000000000000000000000000000000000000000900463ffffffff168063b55f845514610046575b600080fd5b34801561005257600080fd5b5061009b60048036038101908080359060200190929190803573ffffffffffffffffffffffffffffffffffffffff1690602001909291908035906020019092919050505061009d565b005b8260008190555081600560006101000a81548173ffffffffffffffffffffffffffffffffffffffff021916908373ffffffffffffffffffffffffffffffffffffffff160217905550806002819055507fffffffffffffffffffffffffffffffffffffffffffffffffffffffffffffffff600181905550610123600360006101000a81548173ffffffffffffffffffffffffffffffffffffffff021916908373ffffffffffffffffffffffffffffffffffffffff1602179055505050505600a165627a7a72305820eafeb3170ffc1ed0a3a9d91e06cd045353cb7f6c2541fac0b60986114ed401eb0029",
  "source": "pragma solidity ^0.4.22;\n\n\ncontract nonProfit {\n  uint private requirement_detail;\n  uint private minimum_vendor_bid;\n  uint private maxBids;\n  address private vendor;\n  address private donor;\n  address private nonprofit;\n  uint private requirement_status;\n\n  function createRequirement(uint detail, address creator, uint bids) public {\n      requirement_detail = detail;\n      nonprofit = creator;\n      maxBids = bids;\n\n      minimum_vendor_bid = 2**256 - 1;\n      vendor = 0x123;\n  }\n}\n",
  "sourcePath": "/Users/abhi/goDir/src/github.com/svbh/contracts/contracts/nonProfit.sol",
  "compiler": {
    "name": "solc",
    "version": "0.4.24+commit.e67f0147.Emscripten.clang"
  },
  "schemaVersion": "2.0.1",
  "updatedAt": "2018-06-23T18:13:32.502Z"
}